{
  "abi": [
    {
      "inputs": [],
      "stateMutability": "nonpayable",
      "type": "constructor"
    },
    {
      "anonymous": false,
      "inputs": [
        {
          "indexed": true,
          "internalType": "address",
          "name": "owner",
          "type": "address"
        },
        {
          "indexed": true,
          "internalType": "address",
          "name": "spender",
          "type": "address"
        },
        {
          "indexed": false,
          "internalType": "uint256",
          "name": "value",
          "type": "uint256"
        }
      ],
      "name": "Approval",
      "type": "event"
    },
    {
      "anonymous": false,
      "inputs": [
        {
          "indexed": false,
          "internalType": "address",
          "name": "account",
          "type": "address"
        }
      ],
      "name": "Paused",
      "type": "event"
    },
    {
      "anonymous": false,
      "inputs": [
        {
          "indexed": true,
          "internalType": "bytes32",
          "name": "role",
          "type": "bytes32"
        },
        {
          "indexed": true,
          "internalType": "bytes32",
          "name": "previousAdminRole",
          "type": "bytes32"
        },
        {
          "indexed": true,
          "internalType": "bytes32",
          "name": "newAdminRole",
          "type": "bytes32"
        }
      ],
      "name": "RoleAdminChanged",
      "type": "event"
    },
    {
      "anonymous": false,
      "inputs": [
        {
          "indexed": true,
          "internalType": "bytes32",
          "name": "role",
          "type": "bytes32"
        },
        {
          "indexed": true,
          "internalType": "address",
          "name": "account",
          "type": "address"
        },
        {
          "indexed": true,
          "internalType": "address",
          "name": "sender",
          "type": "address"
        }
      ],
      "name": "RoleGranted",
      "type": "event"
    },
    {
      "anonymous": false,
      "inputs": [
        {
          "indexed": true,
          "internalType": "bytes32",
          "name": "role",
          "type": "bytes32"
        },
        {
          "indexed": true,
          "internalType": "address",
          "name": "account",
          "type": "address"
        },
        {
          "indexed": true,
          "internalType": "address",
          "name": "sender",
          "type": "address"
        }
      ],
      "name": "RoleRevoked",
      "type": "event"
    },
    {
      "anonymous": false,
      "inputs": [
        {
          "indexed": true,
          "internalType": "address",
          "name": "from",
          "type": "address"
        },
        {
          "indexed": true,
          "internalType": "address",
          "name": "to",
          "type": "address"
        },
        {
          "indexed": false,
          "internalType": "uint256",
          "name": "value",
          "type": "uint256"
        }
      ],
      "name": "Transfer",
      "type": "event"
    },
    {
      "anonymous": false,
      "inputs": [
        {
          "indexed": false,
          "internalType": "address",
          "name": "account",
          "type": "address"
        }
      ],
      "name": "Unpaused",
      "type": "event"
    },
    {
      "inputs": [],
      "name": "DEFAULT_ADMIN_ROLE",
      "outputs": [
        {
          "internalType": "bytes32",
          "name": "",
          "type": "bytes32"
        }
      ],
      "stateMutability": "view",
      "type": "function"
    },
    {
      "inputs": [],
      "name": "MINTER_ROLE",
      "outputs": [
        {
          "internalType": "bytes32",
          "name": "",
          "type": "bytes32"
        }
      ],
      "stateMutability": "view",
      "type": "function"
    },
    {
      "inputs": [],
      "name": "PAUSER_ROLE",
      "outputs": [
        {
          "internalType": "bytes32",
          "name": "",
          "type": "bytes32"
        }
      ],
      "stateMutability": "view",
      "type": "function"
    },
    {
      "inputs": [
        {
          "internalType": "address",
          "name": "owner",
          "type": "address"
        },
        {
          "internalType": "address",
          "name": "spender",
          "type": "address"
        }
      ],
      "name": "allowance",
      "outputs": [
        {
          "internalType": "uint256",
          "name": "",
          "type": "uint256"
        }
      ],
      "stateMutability": "view",
      "type": "function"
    },
    {
      "inputs": [
        {
          "internalType": "address",
          "name": "spender",
          "type": "address"
        },
        {
          "internalType": "uint256",
          "name": "amount",
          "type": "uint256"
        }
      ],
      "name": "approve",
      "outputs": [
        {
          "internalType": "bool",
          "name": "",
          "type": "bool"
        }
      ],
      "stateMutability": "nonpayable",
      "type": "function"
    },
    {
      "inputs": [
        {
          "internalType": "address",
          "name": "account",
          "type": "address"
        }
      ],
      "name": "balanceOf",
      "outputs": [
        {
          "internalType": "uint256",
          "name": "",
          "type": "uint256"
        }
      ],
      "stateMutability": "view",
      "type": "function"
    },
    {
      "inputs": [
        {
          "internalType": "uint256",
          "name": "amount",
          "type": "uint256"
        }
      ],
      "name": "burn",
      "outputs": [],
      "stateMutability": "nonpayable",
      "type": "function"
    },
    {
      "inputs": [
        {
          "internalType": "address",
          "name": "account",
          "type": "address"
        },
        {
          "internalType": "uint256",
          "name": "amount",
          "type": "uint256"
        }
      ],
      "name": "burnFrom",
      "outputs": [],
      "stateMutability": "nonpayable",
      "type": "function"
    },
    {
      "inputs": [],
      "name": "collateralSymbol",
      "outputs": [
        {
          "internalType": "string",
          "name": "",
          "type": "string"
        }
      ],
      "stateMutability": "view",
      "type": "function"
    },
    {
      "inputs": [],
      "name": "decimals",
      "outputs": [
        {
          "internalType": "uint8",
          "name": "",
          "type": "uint8"
        }
      ],
      "stateMutability": "view",
      "type": "function"
    },
    {
      "inputs": [
        {
          "internalType": "address",
          "name": "spender",
          "type": "address"
        },
        {
          "internalType": "uint256",
          "name": "subtractedValue",
          "type": "uint256"
        }
      ],
      "name": "decreaseAllowance",
      "outputs": [
        {
          "internalType": "bool",
          "name": "",
          "type": "bool"
        }
      ],
      "stateMutability": "nonpayable",
      "type": "function"
    },
    {
      "inputs": [],
      "name": "dov",
      "outputs": [
        {
          "internalType": "address",
          "name": "",
          "type": "address"
        }
      ],
      "stateMutability": "view",
      "type": "function"
    },
    {
      "inputs": [],
      "name": "expiry",
      "outputs": [
        {
          "internalType": "uint256",
          "name": "",
          "type": "uint256"
        }
      ],
      "stateMutability": "view",
      "type": "function"
    },
    {
      "inputs": [
        {
          "internalType": "bytes32",
          "name": "role",
          "type": "bytes32"
        }
      ],
      "name": "getRoleAdmin",
      "outputs": [
        {
          "internalType": "bytes32",
          "name": "",
          "type": "bytes32"
        }
      ],
      "stateMutability": "view",
      "type": "function"
    },
    {
      "inputs": [
        {
          "internalType": "bytes32",
          "name": "role",
          "type": "bytes32"
        },
        {
          "internalType": "uint256",
          "name": "index",
          "type": "uint256"
        }
      ],
      "name": "getRoleMember",
      "outputs": [
        {
          "internalType": "address",
          "name": "",
          "type": "address"
        }
      ],
      "stateMutability": "view",
      "type": "function"
    },
    {
      "inputs": [
        {
          "internalType": "bytes32",
          "name": "role",
          "type": "bytes32"
        }
      ],
      "name": "getRoleMemberCount",
      "outputs": [
        {
          "internalType": "uint256",
          "name": "",
          "type": "uint256"
        }
      ],
      "stateMutability": "view",
      "type": "function"
    },
    {
      "inputs": [
        {
          "internalType": "bytes32",
          "name": "role",
          "type": "bytes32"
        },
        {
          "internalType": "address",
          "name": "account",
          "type": "address"
        }
      ],
      "name": "grantRole",
      "outputs": [],
      "stateMutability": "nonpayable",
      "type": "function"
    },
    {
      "inputs": [
        {
          "internalType": "bytes32",
          "name": "role",
          "type": "bytes32"
        },
        {
          "internalType": "address",
          "name": "account",
          "type": "address"
        }
      ],
      "name": "hasRole",
      "outputs": [
        {
          "internalType": "bool",
          "name": "",
          "type": "bool"
        }
      ],
      "stateMutability": "view",
      "type": "function"
    },
    {
      "inputs": [
        {
          "internalType": "address",
          "name": "spender",
          "type": "address"
        },
        {
          "internalType": "uint256",
          "name": "addedValue",
          "type": "uint256"
        }
      ],
      "name": "increaseAllowance",
      "outputs": [
        {
          "internalType": "bool",
          "name": "",
          "type": "bool"
        }
      ],
      "stateMutability": "nonpayable",
      "type": "function"
    },
    {
      "inputs": [
        {
          "internalType": "address",
          "name": "_dov",
          "type": "address"
        },
        {
          "internalType": "bool",
          "name": "_isPut",
          "type": "bool"
        },
        {
          "internalType": "uint256",
          "name": "_strike",
          "type": "uint256"
        },
        {
          "internalType": "uint256",
          "name": "_expiry",
          "type": "uint256"
        },
        {
          "internalType": "string",
          "name": "_underlyingSymbol",
          "type": "string"
        },
        {
          "internalType": "string",
          "name": "_collateralSymbol",
          "type": "string"
        },
        {
          "internalType": "string",
          "name": "_expirySymbol",
          "type": "string"
        }
      ],
      "name": "initialize",
      "outputs": [],
      "stateMutability": "nonpayable",
      "type": "function"
    },
    {
      "inputs": [],
      "name": "isPut",
      "outputs": [
        {
          "internalType": "bool",
          "name": "",
          "type": "bool"
        }
      ],
      "stateMutability": "view",
      "type": "function"
    },
    {
      "inputs": [
        {
          "internalType": "address",
          "name": "to",
          "type": "address"
        },
        {
          "internalType": "uint256",
          "name": "amount",
          "type": "uint256"
        }
      ],
      "name": "mint",
      "outputs": [],
      "stateMutability": "nonpayable",
      "type": "function"
    },
    {
      "inputs": [],
      "name": "name",
      "outputs": [
        {
          "internalType": "string",
          "name": "",
          "type": "string"
        }
      ],
      "stateMutability": "view",
      "type": "function"
    },
    {
      "inputs": [],
      "name": "pause",
      "outputs": [],
      "stateMutability": "nonpayable",
      "type": "function"
    },
    {
      "inputs": [],
      "name": "paused",
      "outputs": [
        {
          "internalType": "bool",
          "name": "",
          "type": "bool"
        }
      ],
      "stateMutability": "view",
      "type": "function"
    },
    {
      "inputs": [
        {
          "internalType": "bytes32",
          "name": "role",
          "type": "bytes32"
        },
        {
          "internalType": "address",
          "name": "account",
          "type": "address"
        }
      ],
      "name": "renounceRole",
      "outputs": [],
      "stateMutability": "nonpayable",
      "type": "function"
    },
    {
      "inputs": [
        {
          "internalType": "bytes32",
          "name": "role",
          "type": "bytes32"
        },
        {
          "internalType": "address",
          "name": "account",
          "type": "address"
        }
      ],
      "name": "revokeRole",
      "outputs": [],
      "stateMutability": "nonpayable",
      "type": "function"
    },
    {
      "inputs": [],
      "name": "strike",
      "outputs": [
        {
          "internalType": "uint256",
          "name": "",
          "type": "uint256"
        }
      ],
      "stateMutability": "view",
      "type": "function"
    },
    {
      "inputs": [
        {
          "internalType": "bytes4",
          "name": "interfaceId",
          "type": "bytes4"
        }
      ],
      "name": "supportsInterface",
      "outputs": [
        {
          "internalType": "bool",
          "name": "",
          "type": "bool"
        }
      ],
      "stateMutability": "view",
      "type": "function"
    },
    {
      "inputs": [],
      "name": "symbol",
      "outputs": [
        {
          "internalType": "string",
          "name": "",
          "type": "string"
        }
      ],
      "stateMutability": "view",
      "type": "function"
    },
    {
      "inputs": [],
      "name": "totalSupply",
      "outputs": [
        {
          "internalType": "uint256",
          "name": "",
          "type": "uint256"
        }
      ],
      "stateMutability": "view",
      "type": "function"
    },
    {
      "inputs": [
        {
          "internalType": "address",
          "name": "to",
          "type": "address"
        },
        {
          "internalType": "uint256",
          "name": "amount",
          "type": "uint256"
        }
      ],
      "name": "transfer",
      "outputs": [
        {
          "internalType": "bool",
          "name": "",
          "type": "bool"
        }
      ],
      "stateMutability": "nonpayable",
      "type": "function"
    },
    {
      "inputs": [
        {
          "internalType": "address",
          "name": "from",
          "type": "address"
        },
        {
          "internalType": "address",
          "name": "to",
          "type": "address"
        },
        {
          "internalType": "uint256",
          "name": "amount",
          "type": "uint256"
        }
      ],
      "name": "transferFrom",
      "outputs": [
        {
          "internalType": "bool",
          "name": "",
          "type": "bool"
        }
      ],
      "stateMutability": "nonpayable",
      "type": "function"
    },
    {
      "inputs": [],
      "name": "underlyingSymbol",
      "outputs": [
        {
          "internalType": "string",
          "name": "",
          "type": "string"
        }
      ],
      "stateMutability": "view",
      "type": "function"
    },
    {
      "inputs": [],
      "name": "unpause",
      "outputs": [],
      "stateMutability": "nonpayable",
      "type": "function"
    }
  ],
  "bytecode": {
    "object": "0x60806040523480156200001157600080fd5b5060408051602080820183526000808352835191820190935291825290818160056200003e8382620002b8565b5060066200004d8282620002b8565b50506007805460ff191690555062000067600033620000c7565b620000937f9f2df0fed2c77648de5860a4cc508cd0818c85b8b8a1ab4ceeef8d981c8956a633620000c7565b620000bf7f65d7a28e3265b37a6474929f336521b332c1681b933f6cb9f3376673440d862a33620000c7565b505062000384565b620000d38282620000d7565b5050565b620000e3828262000102565b6000828152600160205260409020620000fd9082620001a2565b505050565b6000828152602081815260408083206001600160a01b038516845290915290205460ff16620000d3576000828152602081815260408083206001600160a01b03851684529091529020805460ff191660011790556200015e3390565b6001600160a01b0316816001600160a01b0316837f2f8788117e7eff1d82e926ec794901d17c78024a50270940304540a733656f0d60405160405180910390a45050565b6000620001b9836001600160a01b038416620001c2565b90505b92915050565b60008181526001830160205260408120546200020b57508154600181810184556000848152602080822090930184905584548482528286019093526040902091909155620001bc565b506000620001bc565b634e487b7160e01b600052604160045260246000fd5b600181811c908216806200023f57607f821691505b6020821081036200026057634e487b7160e01b600052602260045260246000fd5b50919050565b601f821115620000fd57600081815260208120601f850160051c810160208610156200028f5750805b601f850160051c820191505b81811015620002b0578281556001016200029b565b505050505050565b81516001600160401b03811115620002d457620002d462000214565b620002ec81620002e584546200022a565b8462000266565b602080601f8311600181146200032457600084156200030b5750858301515b600019600386901b1c1916600185901b178555620002b0565b600085815260208120601f198616915b82811015620003555788860151825594840194600190910190840162000334565b5085821015620003745787850151600019600388901b60f8161c191681555b5050505050600190811b01905550565b611fdd80620003946000396000f3fe608060405234801561001057600080fd5b50600436106102115760003560e01c806379cc679011610125578063bf911794116100ad578063d90a730e1161007c578063d90a730e1461046d578063dd62ed3e14610475578063e184c9be14610488578063e63ab1e914610491578063f3c274a6146104a657600080fd5b8063bf91179414610418578063ca15c87314610420578063d539139314610433578063d547741f1461045a57600080fd5b806395d89b41116100f457806395d89b41146103d9578063a217fddf146103e1578063a457c2d7146103e9578063a9059cbb146103fc578063ad8f50081461040f57600080fd5b806379cc6790146103985780638456cb59146103ab5780639010d07c146103b357806391d14854146103c657600080fd5b8063313ce567116101a857806340c10f191161017757806340c10f191461032b57806342966c681461033e5780635c975abb146103515780635edabd8b1461035c57806370a082311461036f57600080fd5b8063313ce567146102ee57806336568abe146102fd57806339509351146103105780633f4ba83a1461032357600080fd5b806318160ddd116101e457806318160ddd1461029157806323b872dd146102a3578063248a9ca3146102b65780632f2ff15d146102d957600080fd5b806301ffc9a71461021657806306fdde031461023e578063095ea7b3146102535780630af0ebf714610266575b600080fd5b6102296102243660046119cd565b6104b8565b60405190151581526020015b60405180910390f35b6102466104e3565b6040516102359190611a1b565b610229610261366004611a6a565b610575565b600a54610279906001600160a01b031681565b6040516001600160a01b039091168152602001610235565b6004545b604051908152602001610235565b6102296102b1366004611a94565b61058d565b6102956102c4366004611ad0565b60009081526020819052604090206001015490565b6102ec6102e7366004611ae9565b6105b1565b005b60405160128152602001610235565b6102ec61030b366004611ae9565b6105db565b61022961031e366004611a6a565b61065e565b6102ec610680565b6102ec610339366004611a6a565b610714565b6102ec61034c366004611ad0565b6107b3565b60075460ff16610229565b6102ec61036a366004611bb8565b6107c0565b61029561037d366004611c7c565b6001600160a01b031660009081526002602052604090205490565b6102ec6103a6366004611a6a565b610994565b6102ec6109a9565b6102796103c1366004611c97565b610a3b565b6102296103d4366004611ae9565b610a5a565b610246610a83565b610295600081565b6102296103f7366004611a6a565b610a92565b61022961040a366004611a6a565b610b0d565b61029560085481565b610246610b1b565b61029561042e366004611ad0565b610ba9565b6102957f9f2df0fed2c77648de5860a4cc508cd0818c85b8b8a1ab4ceeef8d981c8956a681565b6102ec610468366004611ae9565b610bc0565b610246610be5565b610295610483366004611cb9565b610bf2565b61029560095481565b610295600080516020611f8883398151915281565b60075461022990610100900460ff1681565b60006001600160e01b03198216635a05180f60e01b14806104dd57506104dd82610c1d565b92915050565b6060600580546104f290611ce3565b80601f016020809104026020016040519081016040528092919081815260200182805461051e90611ce3565b801561056b5780601f106105405761010080835404028352916020019161056b565b820191906000526020600020905b81548152906001019060200180831161054e57829003601f168201915b5050505050905090565b600033610583818585610c52565b5060019392505050565b60003361059b858285610d76565b6105a6858585610df0565b506001949350505050565b6000828152602081905260409020600101546105cc81610fa6565b6105d68383610fb0565b505050565b6001600160a01b03811633146106505760405162461bcd60e51b815260206004820152602f60248201527f416363657373436f6e74726f6c3a2063616e206f6e6c792072656e6f756e636560448201526e103937b632b9903337b91039b2b63360891b60648201526084015b60405180910390fd5b61065a8282610fd2565b5050565b6000336105838185856106718383610bf2565b61067b9190611d33565b610c52565b610698600080516020611f8883398151915233610a5a565b61070a5760405162461bcd60e51b815260206004820152603960248201527f45524332305072657365744d696e7465725061757365723a206d75737420686160448201527f76652070617573657220726f6c6520746f20756e7061757365000000000000006064820152608401610647565b610712610ff4565b565b61073e7f9f2df0fed2c77648de5860a4cc508cd0818c85b8b8a1ab4ceeef8d981c8956a633610a5a565b6107a95760405162461bcd60e51b815260206004820152603660248201527f45524332305072657365744d696e7465725061757365723a206d7573742068616044820152751d99481b5a5b9d195c881c9bdb19481d1bc81b5a5b9d60521b6064820152608401610647565b61065a8282611046565b6107bd3382611113565b50565b83421061080f5760405162461bcd60e51b815260206004820181905260248201527f43616e2774206465706c6f7920616e206578706972656420636f6e74726163746044820152606401610647565b600a80546001600160a01b0319166001600160a01b038916179055600b6108368482611d94565b50600c6108438382611d94565b506007805461ff00191661010088151502179055600885905560098490556040805180820190915260018152602d60f81b6020820152600090610887908590611253565b90506108938183611253565b90506108b881604051806040016040528060018152602001602d60f81b815250611253565b90506108e1816108dc670de0b6b3a76400006008546108d79190611e54565b61127f565b611253565b905061093b81600760019054906101000a900460ff1661091b57604051806040016040528060028152602001612d4360f01b815250611253565b6040518060400160405280600281526020016102d560f41b815250611253565b9050610948600033611312565b6109727f9f2df0fed2c77648de5860a4cc508cd0818c85b8b8a1ab4ceeef8d981c8956a633611312565b61098a600080516020611f8883398151915233611312565b5050505050505050565b61099f823383610d76565b61065a8282611113565b6109c1600080516020611f8883398151915233610a5a565b610a335760405162461bcd60e51b815260206004820152603760248201527f45524332305072657365744d696e7465725061757365723a206d75737420686160448201527f76652070617573657220726f6c6520746f2070617573650000000000000000006064820152608401610647565b61071261131c565b6000828152600160205260408120610a539083611359565b9392505050565b6000918252602082815260408084206001600160a01b0393909316845291905290205460ff1690565b6060600680546104f290611ce3565b60003381610aa08286610bf2565b905083811015610b005760405162461bcd60e51b815260206004820152602560248201527f45524332303a2064656372656173656420616c6c6f77616e63652062656c6f77604482015264207a65726f60d81b6064820152608401610647565b6105a68286868403610c52565b600033610583818585610df0565b600c8054610b2890611ce3565b80601f0160208091040260200160405190810160405280929190818152602001828054610b5490611ce3565b8015610ba15780601f10610b7657610100808354040283529160200191610ba1565b820191906000526020600020905b815481529060010190602001808311610b8457829003601f168201915b505050505081565b60008181526001602052604081206104dd90611365565b600082815260208190526040902060010154610bdb81610fa6565b6105d68383610fd2565b600b8054610b2890611ce3565b6001600160a01b03918216600090815260036020908152604080832093909416825291909152205490565b60006001600160e01b03198216637965db0b60e01b14806104dd57506301ffc9a760e01b6001600160e01b03198316146104dd565b6001600160a01b038316610cb45760405162461bcd60e51b8152602060048201526024808201527f45524332303a20617070726f76652066726f6d20746865207a65726f206164646044820152637265737360e01b6064820152608401610647565b6001600160a01b038216610d155760405162461bcd60e51b815260206004820152602260248201527f45524332303a20617070726f766520746f20746865207a65726f206164647265604482015261737360f01b6064820152608401610647565b6001600160a01b0383811660008181526003602090815260408083209487168084529482529182902085905590518481527f8c5be1e5ebec7d5bd14f71427d1e84f3dd0314c0f7b2291e5b200ac8c7c3b925910160405180910390a3505050565b6000610d828484610bf2565b90506000198114610dea5781811015610ddd5760405162461bcd60e51b815260206004820152601d60248201527f45524332303a20696e73756666696369656e7420616c6c6f77616e63650000006044820152606401610647565b610dea8484848403610c52565b50505050565b6001600160a01b038316610e545760405162461bcd60e51b815260206004820152602560248201527f45524332303a207472616e736665722066726f6d20746865207a65726f206164604482015264647265737360d81b6064820152608401610647565b6001600160a01b038216610eb65760405162461bcd60e51b815260206004820152602360248201527f45524332303a207472616e7366657220746f20746865207a65726f206164647260448201526265737360e81b6064820152608401610647565b610ec183838361136f565b6001600160a01b03831660009081526002602052604090205481811015610f395760405162461bcd60e51b815260206004820152602660248201527f45524332303a207472616e7366657220616d6f756e7420657863656564732062604482015265616c616e636560d01b6064820152608401610647565b6001600160a01b0380851660008181526002602052604080822086860390559286168082529083902080548601905591517fddf252ad1be2c89b69c2b068fc378daa952ba7f163c4a11628f55a4df523b3ef90610f999086815260200190565b60405180910390a3610dea565b6107bd813361137a565b610fba82826113d3565b60008281526001602052604090206105d69082611457565b610fdc828261146c565b60008281526001602052604090206105d690826114d1565b610ffc6114e6565b6007805460ff191690557f5db9ee0a495bf2e6ff9c91a7834c1ba4fdd244a5e8aa4e537bd38aeae4b073aa335b6040516001600160a01b03909116815260200160405180910390a1565b6001600160a01b03821661109c5760405162461bcd60e51b815260206004820152601f60248201527f45524332303a206d696e7420746f20746865207a65726f2061646472657373006044820152606401610647565b6110a86000838361136f565b80600460008282546110ba9190611d33565b90915550506001600160a01b0382166000818152600260209081526040808320805486019055518481527fddf252ad1be2c89b69c2b068fc378daa952ba7f163c4a11628f55a4df523b3ef910160405180910390a35050565b6001600160a01b0382166111735760405162461bcd60e51b815260206004820152602160248201527f45524332303a206275726e2066726f6d20746865207a65726f206164647265736044820152607360f81b6064820152608401610647565b61117f8260008361136f565b6001600160a01b038216600090815260026020526040902054818110156111f35760405162461bcd60e51b815260206004820152602260248201527f45524332303a206275726e20616d6f756e7420657863656564732062616c616e604482015261636560f01b6064820152608401610647565b6001600160a01b03831660008181526002602090815260408083208686039055600480548790039055518581529192917fddf252ad1be2c89b69c2b068fc378daa952ba7f163c4a11628f55a4df523b3ef910160405180910390a3505050565b60608282604051602001611268929190611e76565b604051602081830303815290604052905092915050565b6060600061128c8361152f565b600101905060008167ffffffffffffffff8111156112ac576112ac611b15565b6040519080825280601f01601f1916602001820160405280156112d6576020820181803683370190505b5090508181016020015b600019016f181899199a1a9b1b9c1cb0b131b232b360811b600a86061a8153600a85049450846112e057509392505050565b61065a8282610fb0565b611324611607565b6007805460ff191660011790557f62e78cea01bee320cd4e420270b5ea74000d11b0c9f74754ebdbfc544b05a2586110293390565b6000610a53838361164d565b60006104dd825490565b6105d6838383611677565b6113848282610a5a565b61065a57611391816116dd565b61139c8360206116ef565b6040516020016113ad929190611ea5565b60408051601f198184030181529082905262461bcd60e51b825261064791600401611a1b565b6113dd8282610a5a565b61065a576000828152602081815260408083206001600160a01b03851684529091529020805460ff191660011790556114133390565b6001600160a01b0316816001600160a01b0316837f2f8788117e7eff1d82e926ec794901d17c78024a50270940304540a733656f0d60405160405180910390a45050565b6000610a53836001600160a01b03841661188b565b6114768282610a5a565b1561065a576000828152602081815260408083206001600160a01b0385168085529252808320805460ff1916905551339285917ff6391f5c32d9c69d2a47ea670b442974b53935d1edc7fd64eb21e047a839171b9190a45050565b6000610a53836001600160a01b0384166118da565b60075460ff166107125760405162461bcd60e51b815260206004820152601460248201527314185d5cd8589b194e881b9bdd081c185d5cd95960621b6044820152606401610647565b60008072184f03e93ff9f4daa797ed6e38ed64bf6a1f0160401b831061156e5772184f03e93ff9f4daa797ed6e38ed64bf6a1f0160401b830492506040015b6d04ee2d6d415b85acef8100000000831061159a576d04ee2d6d415b85acef8100000000830492506020015b662386f26fc1000083106115b857662386f26fc10000830492506010015b6305f5e10083106115d0576305f5e100830492506008015b61271083106115e457612710830492506004015b606483106115f6576064830492506002015b600a83106104dd5760010192915050565b60075460ff16156107125760405162461bcd60e51b815260206004820152601060248201526f14185d5cd8589b194e881c185d5cd95960821b6044820152606401610647565b600082600001828154811061166457611664611f1a565b9060005260206000200154905092915050565b60075460ff16156105d65760405162461bcd60e51b815260206004820152602a60248201527f45524332305061757361626c653a20746f6b656e207472616e736665722077686044820152691a5b19481c185d5cd95960b21b6064820152608401610647565b60606104dd6001600160a01b03831660145b606060006116fe836002611f30565b611709906002611d33565b67ffffffffffffffff81111561172157611721611b15565b6040519080825280601f01601f19166020018201604052801561174b576020820181803683370190505b509050600360fc1b8160008151811061176657611766611f1a565b60200101906001600160f81b031916908160001a905350600f60fb1b8160018151811061179557611795611f1a565b60200101906001600160f81b031916908160001a90535060006117b9846002611f30565b6117c4906001611d33565b90505b600181111561183c576f181899199a1a9b1b9c1cb0b131b232b360811b85600f16601081106117f8576117f8611f1a565b1a60f81b82828151811061180e5761180e611f1a565b60200101906001600160f81b031916908160001a90535060049490941c9361183581611f47565b90506117c7565b508315610a535760405162461bcd60e51b815260206004820181905260248201527f537472696e67733a20686578206c656e67746820696e73756666696369656e746044820152606401610647565b60008181526001830160205260408120546118d2575081546001818101845560008481526020808220909301849055845484825282860190935260409020919091556104dd565b5060006104dd565b600081815260018301602052604081205480156119c35760006118fe600183611f5e565b855490915060009061191290600190611f5e565b905081811461197757600086600001828154811061193257611932611f1a565b906000526020600020015490508087600001848154811061195557611955611f1a565b6000918252602080832090910192909255918252600188019052604090208390555b855486908061198857611988611f71565b6001900381819060005260206000200160009055905585600101600086815260200190815260200160002060009055600193505050506104dd565b60009150506104dd565b6000602082840312156119df57600080fd5b81356001600160e01b031981168114610a5357600080fd5b60005b83811015611a125781810151838201526020016119fa565b50506000910152565b6020815260008251806020840152611a3a8160408501602087016119f7565b601f01601f19169190910160400192915050565b80356001600160a01b0381168114611a6557600080fd5b919050565b60008060408385031215611a7d57600080fd5b611a8683611a4e565b946020939093013593505050565b600080600060608486031215611aa957600080fd5b611ab284611a4e565b9250611ac060208501611a4e565b9150604084013590509250925092565b600060208284031215611ae257600080fd5b5035919050565b60008060408385031215611afc57600080fd5b82359150611b0c60208401611a4e565b90509250929050565b634e487b7160e01b600052604160045260246000fd5b600082601f830112611b3c57600080fd5b813567ffffffffffffffff80821115611b5757611b57611b15565b604051601f8301601f19908116603f01168101908282118183101715611b7f57611b7f611b15565b81604052838152866020858801011115611b9857600080fd5b836020870160208301376000602085830101528094505050505092915050565b600080600080600080600060e0888a031215611bd357600080fd5b611bdc88611a4e565b965060208801358015158114611bf157600080fd5b95506040880135945060608801359350608088013567ffffffffffffffff80821115611c1c57600080fd5b611c288b838c01611b2b565b945060a08a0135915080821115611c3e57600080fd5b611c4a8b838c01611b2b565b935060c08a0135915080821115611c6057600080fd5b50611c6d8a828b01611b2b565b91505092959891949750929550565b600060208284031215611c8e57600080fd5b610a5382611a4e565b60008060408385031215611caa57600080fd5b50508035926020909101359150565b60008060408385031215611ccc57600080fd5b611cd583611a4e565b9150611b0c60208401611a4e565b600181811c90821680611cf757607f821691505b602082108103611d1757634e487b7160e01b600052602260045260246000fd5b50919050565b634e487b7160e01b600052601160045260246000fd5b808201808211156104dd576104dd611d1d565b601f8211156105d657600081815260208120601f850160051c81016020861015611d6d5750805b601f850160051c820191505b81811015611d8c57828155600101611d79565b505050505050565b815167ffffffffffffffff811115611dae57611dae611b15565b611dc281611dbc8454611ce3565b84611d46565b602080601f831160018114611df75760008415611ddf5750858301515b600019600386901b1c1916600185901b178555611d8c565b600085815260208120601f198616915b82811015611e2657888601518255948401946001909101908401611e07565b5085821015611e445787850151600019600388901b60f8161c191681555b5050505050600190811b01905550565b600082611e7157634e487b7160e01b600052601260045260246000fd5b500490565b60008351611e888184602088016119f7565b835190830190611e9c8183602088016119f7565b01949350505050565b7f416363657373436f6e74726f6c3a206163636f756e7420000000000000000000815260008351611edd8160178501602088016119f7565b7001034b99036b4b9b9b4b733903937b6329607d1b6017918401918201528351611f0e8160288401602088016119f7565b01602801949350505050565b634e487b7160e01b600052603260045260246000fd5b80820281158282048414176104dd576104dd611d1d565b600081611f5657611f56611d1d565b506000190190565b818103818111156104dd576104dd611d1d565b634e487b7160e01b600052603160045260246000fdfe65d7a28e3265b37a6474929f336521b332c1681b933f6cb9f3376673440d862aa26469706673582212207bf66db47d8304edc9b1c21710de9b9134c046e5ce4b3cd35d2ff671073fd68f64736f6c63430008130033",
    "linkReferences": {}
  },
  "methodIdentifiers": {
    "DEFAULT_ADMIN_ROLE()": "a217fddf",
    "MINTER_ROLE()": "d5391393",
    "PAUSER_ROLE()": "e63ab1e9",
    "allowance(address,address)": "dd62ed3e",
    "approve(address,uint256)": "095ea7b3",
    "balanceOf(address)": "70a08231",
    "burn(uint256)": "42966c68",
    "burnFrom(address,uint256)": "79cc6790",
    "collateralSymbol()": "bf911794",
    "decimals()": "313ce567",
    "decreaseAllowance(address,uint256)": "a457c2d7",
    "dov()": "0af0ebf7",
    "expiry()": "e184c9be",
    "getRoleAdmin(bytes32)": "248a9ca3",
    "getRoleMember(bytes32,uint256)": "9010d07c",
    "getRoleMemberCount(bytes32)": "ca15c873",
    "grantRole(bytes32,address)": "2f2ff15d",
    "hasRole(bytes32,address)": "91d14854",
    "increaseAllowance(address,uint256)": "39509351",
    "initialize(address,bool,uint256,uint256,string,string,string)": "5edabd8b",
    "isPut()": "f3c274a6",
    "mint(address,uint256)": "40c10f19",
    "name()": "06fdde03",
    "pause()": "8456cb59",
    "paused()": "5c975abb",
    "renounceRole(bytes32,address)": "36568abe",
    "revokeRole(bytes32,address)": "d547741f",
    "strike()": "ad8f5008",
    "supportsInterface(bytes4)": "01ffc9a7",
    "symbol()": "95d89b41",
    "totalSupply()": "18160ddd",
    "transfer(address,uint256)": "a9059cbb",
    "transferFrom(address,address,uint256)": "23b872dd",
    "underlyingSymbol()": "d90a730e",
    "unpause()": "3f4ba83a"
  },
  "id": 48
}