{
  "abi": [
    {
      "inputs": [
        {
          "internalType": "string",
          "name": "_name",
          "type": "string"
        },
        {
          "internalType": "string",
          "name": "_symbol",
          "type": "string"
        },
        {
          "internalType": "string",
          "name": "_underlyingSymbol",
          "type": "string"
        },
        {
          "internalType": "string",
          "name": "_collateralSymbol",
          "type": "string"
        },
        {
          "internalType": "address",
          "name": "_collateralToken",
          "type": "address"
        }
      ],
      "stateMutability": "nonpayable",
      "type": "constructor"
    },
    {
      "anonymous": false,
      "inputs": [
        {
          "indexed": true,
          "internalType": "address",
          "name": "owner",
          "type": "address"
        },
        {
          "indexed": true,
          "internalType": "address",
          "name": "approved",
          "type": "address"
        },
        {
          "indexed": true,
          "internalType": "uint256",
          "name": "tokenId",
          "type": "uint256"
        }
      ],
      "name": "Approval",
      "type": "event"
    },
    {
      "anonymous": false,
      "inputs": [
        {
          "indexed": true,
          "internalType": "address",
          "name": "owner",
          "type": "address"
        },
        {
          "indexed": true,
          "internalType": "address",
          "name": "operator",
          "type": "address"
        },
        {
          "indexed": false,
          "internalType": "bool",
          "name": "approved",
          "type": "bool"
        }
      ],
      "name": "ApprovalForAll",
      "type": "event"
    },
    {
      "anonymous": false,
      "inputs": [
        {
          "indexed": true,
          "internalType": "bytes32",
          "name": "role",
          "type": "bytes32"
        },
        {
          "indexed": true,
          "internalType": "bytes32",
          "name": "previousAdminRole",
          "type": "bytes32"
        },
        {
          "indexed": true,
          "internalType": "bytes32",
          "name": "newAdminRole",
          "type": "bytes32"
        }
      ],
      "name": "RoleAdminChanged",
      "type": "event"
    },
    {
      "anonymous": false,
      "inputs": [
        {
          "indexed": true,
          "internalType": "bytes32",
          "name": "role",
          "type": "bytes32"
        },
        {
          "indexed": true,
          "internalType": "address",
          "name": "account",
          "type": "address"
        },
        {
          "indexed": true,
          "internalType": "address",
          "name": "sender",
          "type": "address"
        }
      ],
      "name": "RoleGranted",
      "type": "event"
    },
    {
      "anonymous": false,
      "inputs": [
        {
          "indexed": true,
          "internalType": "bytes32",
          "name": "role",
          "type": "bytes32"
        },
        {
          "indexed": true,
          "internalType": "address",
          "name": "account",
          "type": "address"
        },
        {
          "indexed": true,
          "internalType": "address",
          "name": "sender",
          "type": "address"
        }
      ],
      "name": "RoleRevoked",
      "type": "event"
    },
    {
      "anonymous": false,
      "inputs": [
        {
          "indexed": true,
          "internalType": "address",
          "name": "from",
          "type": "address"
        },
        {
          "indexed": true,
          "internalType": "address",
          "name": "to",
          "type": "address"
        },
        {
          "indexed": true,
          "internalType": "uint256",
          "name": "tokenId",
          "type": "uint256"
        }
      ],
      "name": "Transfer",
      "type": "event"
    },
    {
      "inputs": [],
      "name": "DEFAULT_ADMIN_ROLE",
      "outputs": [
        {
          "internalType": "bytes32",
          "name": "",
          "type": "bytes32"
        }
      ],
      "stateMutability": "view",
      "type": "function"
    },
    {
      "inputs": [
        {
          "internalType": "address",
          "name": "to",
          "type": "address"
        },
        {
          "internalType": "uint256",
          "name": "tokenId",
          "type": "uint256"
        }
      ],
      "name": "approve",
      "outputs": [],
      "stateMutability": "nonpayable",
      "type": "function"
    },
    {
      "inputs": [
        {
          "internalType": "address",
          "name": "owner",
          "type": "address"
        }
      ],
      "name": "balanceOf",
      "outputs": [
        {
          "internalType": "uint256",
          "name": "",
          "type": "uint256"
        }
      ],
      "stateMutability": "view",
      "type": "function"
    },
    {
      "inputs": [
        {
          "internalType": "uint256[]",
          "name": "strikes",
          "type": "uint256[]"
        },
        {
          "internalType": "uint256",
          "name": "expiry",
          "type": "uint256"
        },
        {
          "internalType": "string",
          "name": "expirySymbol",
          "type": "string"
        }
      ],
      "name": "bootstrap",
      "outputs": [],
      "stateMutability": "nonpayable",
      "type": "function"
    },
    {
      "inputs": [
        {
          "internalType": "uint256",
          "name": "tokenId",
          "type": "uint256"
        }
      ],
      "name": "burn",
      "outputs": [],
      "stateMutability": "nonpayable",
      "type": "function"
    },
    {
      "inputs": [],
      "name": "collateralSymbol",
      "outputs": [
        {
          "internalType": "string",
          "name": "",
          "type": "string"
        }
      ],
      "stateMutability": "view",
      "type": "function"
    },
    {
      "inputs": [],
      "name": "collateralToken",
      "outputs": [
        {
          "internalType": "contract IERC20",
          "name": "",
          "type": "address"
        }
      ],
      "stateMutability": "view",
      "type": "function"
    },
    {
      "inputs": [],
      "name": "currentRound",
      "outputs": [
        {
          "internalType": "uint256",
          "name": "",
          "type": "uint256"
        }
      ],
      "stateMutability": "view",
      "type": "function"
    },
    {
      "inputs": [
        {
          "internalType": "uint256",
          "name": "_strikeIndex",
          "type": "uint256"
        },
        {
          "internalType": "uint256",
          "name": "amount",
          "type": "uint256"
        },
        {
          "internalType": "address",
          "name": "to",
          "type": "address"
        }
      ],
      "name": "deposit",
      "outputs": [
        {
          "internalType": "uint256",
          "name": "tokenId",
          "type": "uint256"
        }
      ],
      "stateMutability": "nonpayable",
      "type": "function"
    },
    {
      "inputs": [
        {
          "internalType": "uint256",
          "name": "_settlementPrice",
          "type": "uint256"
        }
      ],
      "name": "expire",
      "outputs": [],
      "stateMutability": "nonpayable",
      "type": "function"
    },
    {
      "inputs": [
        {
          "internalType": "uint256",
          "name": "tokenId",
          "type": "uint256"
        }
      ],
      "name": "getApproved",
      "outputs": [
        {
          "internalType": "address",
          "name": "",
          "type": "address"
        }
      ],
      "stateMutability": "view",
      "type": "function"
    },
    {
      "inputs": [
        {
          "internalType": "bytes32",
          "name": "role",
          "type": "bytes32"
        }
      ],
      "name": "getRoleAdmin",
      "outputs": [
        {
          "internalType": "bytes32",
          "name": "",
          "type": "bytes32"
        }
      ],
      "stateMutability": "view",
      "type": "function"
    },
    {
      "inputs": [
        {
          "internalType": "uint256",
          "name": "round",
          "type": "uint256"
        }
      ],
      "name": "getRoundData",
      "outputs": [
        {
          "components": [
            {
              "internalType": "bool",
              "name": "expired",
              "type": "bool"
            },
            {
              "internalType": "uint256",
              "name": "startTime",
              "type": "uint256"
            },
            {
              "internalType": "uint256",
              "name": "expiry",
              "type": "uint256"
            },
            {
              "internalType": "uint256",
              "name": "settlementPrice",
              "type": "uint256"
            },
            {
              "internalType": "uint256",
              "name": "totalCollateralBalance",
              "type": "uint256"
            },
            {
              "internalType": "uint256[]",
              "name": "strikes",
              "type": "uint256[]"
            }
          ],
          "internalType": "struct RoundData",
          "name": "",
          "type": "tuple"
        }
      ],
      "stateMutability": "view",
      "type": "function"
    },
    {
      "inputs": [
        {
          "internalType": "uint256",
          "name": "round",
          "type": "uint256"
        },
        {
          "internalType": "uint256",
          "name": "strike",
          "type": "uint256"
        }
      ],
      "name": "getRoundStrikeData",
      "outputs": [
        {
          "components": [
            {
              "internalType": "address",
              "name": "purchaseReceipt",
              "type": "address"
            },
            {
              "internalType": "uint256",
              "name": "totalCollateral",
              "type": "uint256"
            },
            {
              "internalType": "uint256",
              "name": "activeCollateral",
              "type": "uint256"
            },
            {
              "internalType": "uint256",
              "name": "totalPremium",
              "type": "uint256"
            },
            {
              "internalType": "uint256",
              "name": "optionPrice",
              "type": "uint256"
            }
          ],
          "internalType": "struct RoundStrikeData",
          "name": "",
          "type": "tuple"
        }
      ],
      "stateMutability": "view",
      "type": "function"
    },
    {
      "inputs": [
        {
          "internalType": "uint256",
          "name": "tokenId",
          "type": "uint256"
        }
      ],
      "name": "getWritePosition",
      "outputs": [
        {
          "components": [
            {
              "internalType": "uint256",
              "name": "round",
              "type": "uint256"
            },
            {
              "internalType": "uint256",
              "name": "strike",
              "type": "uint256"
            },
            {
              "internalType": "uint256",
              "name": "collateralAmount",
              "type": "uint256"
            },
            {
              "internalType": "uint256",
              "name": "strikeIndex",
              "type": "uint256"
            }
          ],
          "internalType": "struct WritePosition",
          "name": "",
          "type": "tuple"
        }
      ],
      "stateMutability": "view",
      "type": "function"
    },
    {
      "inputs": [
        {
          "internalType": "bytes32",
          "name": "role",
          "type": "bytes32"
        },
        {
          "internalType": "address",
          "name": "account",
          "type": "address"
        }
      ],
      "name": "grantRole",
      "outputs": [],
      "stateMutability": "nonpayable",
      "type": "function"
    },
    {
      "inputs": [
        {
          "internalType": "bytes32",
          "name": "role",
          "type": "bytes32"
        },
        {
          "internalType": "address",
          "name": "account",
          "type": "address"
        }
      ],
      "name": "hasRole",
      "outputs": [
        {
          "internalType": "bool",
          "name": "",
          "type": "bool"
        }
      ],
      "stateMutability": "view",
      "type": "function"
    },
    {
      "inputs": [
        {
          "internalType": "address",
          "name": "owner",
          "type": "address"
        },
        {
          "internalType": "address",
          "name": "operator",
          "type": "address"
        }
      ],
      "name": "isApprovedForAll",
      "outputs": [
        {
          "internalType": "bool",
          "name": "",
          "type": "bool"
        }
      ],
      "stateMutability": "view",
      "type": "function"
    },
    {
      "inputs": [],
      "name": "name",
      "outputs": [
        {
          "internalType": "string",
          "name": "",
          "type": "string"
        }
      ],
      "stateMutability": "view",
      "type": "function"
    },
    {
      "inputs": [
        {
          "internalType": "uint256",
          "name": "tokenId",
          "type": "uint256"
        }
      ],
      "name": "ownerOf",
      "outputs": [
        {
          "internalType": "address",
          "name": "",
          "type": "address"
        }
      ],
      "stateMutability": "view",
      "type": "function"
    },
    {
      "inputs": [
        {
          "internalType": "uint256",
          "name": "strikeIndex",
          "type": "uint256"
        },
        {
          "internalType": "uint256",
          "name": "amount",
          "type": "uint256"
        },
        {
          "internalType": "address",
          "name": "to",
          "type": "address"
        }
      ],
      "name": "purchase",
      "outputs": [
        {
          "internalType": "uint256",
          "name": "premium",
          "type": "uint256"
        }
      ],
      "stateMutability": "nonpayable",
      "type": "function"
    },
    {
      "inputs": [],
      "name": "receiptImplementation",
      "outputs": [
        {
          "internalType": "address",
          "name": "",
          "type": "address"
        }
      ],
      "stateMutability": "view",
      "type": "function"
    },
    {
      "inputs": [
        {
          "internalType": "bytes32",
          "name": "role",
          "type": "bytes32"
        },
        {
          "internalType": "address",
          "name": "account",
          "type": "address"
        }
      ],
      "name": "renounceRole",
      "outputs": [],
      "stateMutability": "nonpayable",
      "type": "function"
    },
    {
      "inputs": [
        {
          "internalType": "bytes32",
          "name": "role",
          "type": "bytes32"
        },
        {
          "internalType": "address",
          "name": "account",
          "type": "address"
        }
      ],
      "name": "revokeRole",
      "outputs": [],
      "stateMutability": "nonpayable",
      "type": "function"
    },
    {
      "inputs": [
        {
          "internalType": "address",
          "name": "from",
          "type": "address"
        },
        {
          "internalType": "address",
          "name": "to",
          "type": "address"
        },
        {
          "internalType": "uint256",
          "name": "tokenId",
          "type": "uint256"
        }
      ],
      "name": "safeTransferFrom",
      "outputs": [],
      "stateMutability": "nonpayable",
      "type": "function"
    },
    {
      "inputs": [
        {
          "internalType": "address",
          "name": "from",
          "type": "address"
        },
        {
          "internalType": "address",
          "name": "to",
          "type": "address"
        },
        {
          "internalType": "uint256",
          "name": "tokenId",
          "type": "uint256"
        },
        {
          "internalType": "bytes",
          "name": "data",
          "type": "bytes"
        }
      ],
      "name": "safeTransferFrom",
      "outputs": [],
      "stateMutability": "nonpayable",
      "type": "function"
    },
    {
      "inputs": [
        {
          "internalType": "address",
          "name": "operator",
          "type": "address"
        },
        {
          "internalType": "bool",
          "name": "approved",
          "type": "bool"
        }
      ],
      "name": "setApprovalForAll",
      "outputs": [],
      "stateMutability": "nonpayable",
      "type": "function"
    },
    {
      "inputs": [
        {
          "internalType": "uint256",
          "name": "strikeIndex",
          "type": "uint256"
        },
        {
          "internalType": "uint256",
          "name": "amount",
          "type": "uint256"
        },
        {
          "internalType": "uint256",
          "name": "round",
          "type": "uint256"
        },
        {
          "internalType": "address",
          "name": "to",
          "type": "address"
        }
      ],
      "name": "settle",
      "outputs": [
        {
          "internalType": "uint256",
          "name": "pnl",
          "type": "uint256"
        }
      ],
      "stateMutability": "nonpayable",
      "type": "function"
    },
    {
      "inputs": [
        {
          "internalType": "bytes4",
          "name": "interfaceId",
          "type": "bytes4"
        }
      ],
      "name": "supportsInterface",
      "outputs": [
        {
          "internalType": "bool",
          "name": "",
          "type": "bool"
        }
      ],
      "stateMutability": "view",
      "type": "function"
    },
    {
      "inputs": [],
      "name": "symbol",
      "outputs": [
        {
          "internalType": "string",
          "name": "",
          "type": "string"
        }
      ],
      "stateMutability": "view",
      "type": "function"
    },
    {
      "inputs": [
        {
          "internalType": "uint256",
          "name": "tokenId",
          "type": "uint256"
        }
      ],
      "name": "tokenURI",
      "outputs": [
        {
          "internalType": "string",
          "name": "",
          "type": "string"
        }
      ],
      "stateMutability": "view",
      "type": "function"
    },
    {
      "inputs": [
        {
          "internalType": "address",
          "name": "from",
          "type": "address"
        },
        {
          "internalType": "address",
          "name": "to",
          "type": "address"
        },
        {
          "internalType": "uint256",
          "name": "tokenId",
          "type": "uint256"
        }
      ],
      "name": "transferFrom",
      "outputs": [],
      "stateMutability": "nonpayable",
      "type": "function"
    },
    {
      "inputs": [],
      "name": "underlyingSymbol",
      "outputs": [
        {
          "internalType": "string",
          "name": "",
          "type": "string"
        }
      ],
      "stateMutability": "view",
      "type": "function"
    },
    {
      "inputs": [
        {
          "internalType": "uint256[]",
          "name": "optionPrices",
          "type": "uint256[]"
        }
      ],
      "name": "updateOptionPrice",
      "outputs": [],
      "stateMutability": "nonpayable",
      "type": "function"
    },
    {
      "inputs": [
        {
          "internalType": "uint256",
          "name": "tokenId",
          "type": "uint256"
        },
        {
          "internalType": "address",
          "name": "to",
          "type": "address"
        }
      ],
      "name": "withdraw",
      "outputs": [
        {
          "internalType": "uint256",
          "name": "writerPnl",
          "type": "uint256"
        }
      ],
      "stateMutability": "nonpayable",
      "type": "function"
    }
  ],
  "bytecode": {
    "object": "0x60806040523480156200001157600080fd5b50604051620058f5380380620058f583398101604081905262000034916200027d565b84846000620000448382620003e9565b506001620000538282620003e9565b506200006591506000905033620000f6565b6008620000738482620003e9565b506009620000828382620003e9565b50600780546001600160a01b0319166001600160a01b038316179055604051620000ac90620001aa565b604051809103906000f080158015620000c9573d6000803e3d6000fd5b50600a80546001600160a01b0319166001600160a01b039290921691909117905550620004b59350505050565b62000102828262000106565b5050565b60008281526006602090815260408083206001600160a01b038516845290915290205460ff16620001025760008281526006602090815260408083206001600160a01b03851684529091529020805460ff19166001179055620001663390565b6001600160a01b0316816001600160a01b0316837f2f8788117e7eff1d82e926ec794901d17c78024a50270940304540a733656f0d60405160405180910390a45050565b612371806200358483390190565b634e487b7160e01b600052604160045260246000fd5b600082601f830112620001e057600080fd5b81516001600160401b0380821115620001fd57620001fd620001b8565b604051601f8301601f19908116603f01168101908282118183101715620002285762000228620001b8565b816040528381526020925086838588010111156200024557600080fd5b600091505b838210156200026957858201830151818301840152908201906200024a565b600093810190920192909252949350505050565b600080600080600060a086880312156200029657600080fd5b85516001600160401b0380821115620002ae57600080fd5b620002bc89838a01620001ce565b96506020880151915080821115620002d357600080fd5b620002e189838a01620001ce565b95506040880151915080821115620002f857600080fd5b6200030689838a01620001ce565b945060608801519150808211156200031d57600080fd5b506200032c88828901620001ce565b608088015190935090506001600160a01b03811681146200034c57600080fd5b809150509295509295909350565b600181811c908216806200036f57607f821691505b6020821081036200039057634e487b7160e01b600052602260045260246000fd5b50919050565b601f821115620003e457600081815260208120601f850160051c81016020861015620003bf5750805b601f850160051c820191505b81811015620003e057828155600101620003cb565b5050505b505050565b81516001600160401b03811115620004055762000405620001b8565b6200041d816200041684546200035a565b8462000396565b602080601f8311600181146200045557600084156200043c5750858301515b600019600386901b1c1916600185901b178555620003e0565b600085815260208120601f198616915b82811015620004865788860151825594840194600190910190840162000465565b5085821015620004a55787850151600019600388901b60f8161c191681555b5050505050600190811b01905550565b6130bf80620004c56000396000f3fe608060405234801561001057600080fd5b50600436106102105760003560e01c80638dbdbe6d11610125578063bf81bf43116100ad578063d547741f1161007c578063d547741f146104f9578063d90a730e1461050c578063e985e9c514610514578063ea3bd5df14610550578063f36391381461056357600080fd5b8063bf81bf4314610472578063bf91179414610485578063c87b56dd1461048d578063ce7fa75d146104a057600080fd5b8063a217fddf116100f4578063a217fddf1461041e578063a22cb46514610426578063a356368e14610439578063b2016bd41461044c578063b88d4fde1461045f57600080fd5b80638dbdbe6d146103dd57806391aee9a8146103f057806391d148541461040357806395d89b411461041657600080fd5b8063248a9ca3116101a857806342966c681161017757806342966c68146103885780636352211e1461039b57806370a08231146103ae578063751eb65c146103c15780638a19c8bc146103d457600080fd5b8063248a9ca31461032c5780632f2ff15d1461034f57806336568abe1461036257806342842e0e1461037557600080fd5b806307ccd2a6116101e457806307ccd2a614610293578063081812fc146102d9578063095ea7b31461030457806323b872dd1461031957600080fd5b8062f714ce1461021557806301ffc9a71461023b57806306fdde031461025e5780630720da5214610273575b600080fd5b610228610223366004612736565b610576565b6040519081526020015b60405180910390f35b61024e610249366004612778565b610765565b6040519015158152602001610232565b610266610776565b60405161023291906127e5565b6102866102813660046127f8565b610808565b6040516102329190612811565b6102a66102a13660046127f8565b6108eb565b60405161023291908151815260208083015190820152604080830151908201526060918201519181019190915260800190565b6102ec6102e73660046127f8565b61095b565b6040516001600160a01b039091168152602001610232565b610317610312366004612898565b610982565b005b6103176103273660046128c2565b610a9c565b61022861033a3660046127f8565b60009081526006602052604090206001015490565b61031761035d366004612736565b610ace565b610317610370366004612736565b610af3565b6103176103833660046128c2565b610b71565b6103176103963660046127f8565b610b8c565b6102ec6103a93660046127f8565b610bbd565b6102286103bc3660046128fe565b610c1d565b6103176103cf366004612a38565b610ca3565b610228600b5481565b6102286103eb366004612ab9565b610e30565b6102286103fe366004612aee565b611008565b61024e610411366004612736565b611251565b61026661127c565b610228600081565b610317610434366004612b3b565b61128b565b610317610447366004612b72565b611296565b6007546102ec906001600160a01b031681565b61031761046d366004612ba7565b611304565b6103176104803660046127f8565b61133c565b610266611379565b61026661049b3660046127f8565b611407565b6104b36104ae366004612c23565b61147b565b604051610232919081516001600160a01b031681526020808301519082015260408083015190820152606080830151908201526080918201519181019190915260a00190565b610317610507366004612736565b611515565b61026661153a565b61024e610522366004612c45565b6001600160a01b03918216600090815260056020908152604080832093909416825291909152205460ff1690565b61022861055e366004612ab9565b611547565b600a546102ec906001600160a01b031681565b600061058061186a565b6000838152600e602090815260408083208054600180830154600380850154600295860154858a52600c8952878a208084015490880154600d8b52898c20848d52909a52979099209384015491840154939095015493979196949591949193919290916105ec886118cd565b6105f5856118cd565b6105fe8c610b8c565b600061060a8385612c85565b61061c88670de0b6b3a7640000612c98565b6106269190612caf565b905060008987101561067f5760008a610647670de0b6b3a764000086612c98565b6106519190612caf565b9050670de0b6b3a7640000816106678a8e612c85565b6106719190612c98565b61067b9190612caf565b9150505b64e8d4a51000670de0b6b3a7640000836106998489612c85565b6106a39190612c98565b6106ad9190612caf565b6106b79190612caf565b9b50600760009054906101000a90046001600160a01b03166001600160a01b031663a9059cbb8e8e6040518363ffffffff1660e01b81526004016107109291906001600160a01b03929092168252602082015260400190565b6020604051808303816000875af115801561072f573d6000803e3d6000fd5b505050506040513d601f19601f820116820180604052508101906107539190612cd1565b50505050505050505050505092915050565b60006107708261191d565b92915050565b60606000805461078590612cee565b80601f01602080910402602001604051908101604052809291908181526020018280546107b190612cee565b80156107fe5780601f106107d3576101008083540402835291602001916107fe565b820191906000526020600020905b8154815290600101906020018083116107e157829003601f168201915b5050505050905090565b6108436040518060c0016040528060001515815260200160008152602001600081526020016000815260200160008152602001606081525090565b6000828152600c6020908152604091829020825160c081018452815460ff161515815260018201548184015260028201548185015260038201546060820152600482015460808201526005820180548551818602810186019096528086529194929360a086019392908301828280156108db57602002820191906000526020600020905b8154815260200190600101908083116108c7575b5050505050815250509050919050565b6109166040518060800160405280600081526020016000815260200160008152602001600081525090565b506000908152600e6020908152604091829020825160808101845281548152600182015492810192909252600281015492820192909252600390910154606082015290565b600061096682611942565b506000908152600460205260409020546001600160a01b031690565b600061098d82610bbd565b9050806001600160a01b0316836001600160a01b0316036109ff5760405162461bcd60e51b815260206004820152602160248201527f4552433732313a20617070726f76616c20746f2063757272656e74206f776e656044820152603960f91b60648201526084015b60405180910390fd5b336001600160a01b0382161480610a1b5750610a1b8133610522565b610a8d5760405162461bcd60e51b815260206004820152603d60248201527f4552433732313a20617070726f76652063616c6c6572206973206e6f7420746f60448201527f6b656e206f776e6572206f7220617070726f76656420666f7220616c6c00000060648201526084016109f6565b610a9783836119a1565b505050565b610aa7335b82611a0f565b610ac35760405162461bcd60e51b81526004016109f690612d28565b610a97838383611a8e565b600082815260066020526040902060010154610ae981611bf2565b610a978383611bfc565b6001600160a01b0381163314610b635760405162461bcd60e51b815260206004820152602f60248201527f416363657373436f6e74726f6c3a2063616e206f6e6c792072656e6f756e636560448201526e103937b632b9903337b91039b2b63360891b60648201526084016109f6565b610b6d8282611c82565b5050565b610a9783838360405180602001604052806000815250611304565b610b9533610aa1565b610bb15760405162461bcd60e51b81526004016109f690612d28565b610bba81611ce9565b50565b6000818152600260205260408120546001600160a01b0316806107705760405162461bcd60e51b8152602060048201526018602482015277115490cdcc8c4e881a5b9d985b1a59081d1bdad95b88125160421b60448201526064016109f6565b60006001600160a01b038216610c875760405162461bcd60e51b815260206004820152602960248201527f4552433732313a2061646472657373207a65726f206973206e6f7420612076616044820152683634b21037bbb732b960b91b60648201526084016109f6565b506001600160a01b031660009081526003602052604090205490565b6000610cae81611bf2565b6000600b546001610cbf9190612d75565b600b5490915015610ce857600b546000908152600c6020526040902054610ce89060ff16611d7e565b6000818152600c602090815260409091208651610d0d926005909201918801906126bf565b506000818152600c60205260408120426001820155600201859055600b82905580805b8751811015610e2657878181518110610d4b57610d4b612d88565b6020908102919091010151600a54909250610d6e906001600160a01b0316611dcb565b604051635edabd8b60e01b81529093506001600160a01b03841690635edabd8b90610dac90309060019087908d906008906009908f90600401612e42565b600060405180830381600087803b158015610dc657600080fd5b505af1158015610dda573d6000803e3d6000fd5b5050600b546000908152600d60209081526040808320868452909152902080546001600160a01b0319166001600160a01b03871617905550819050610e1e81612eab565b915050610d30565b5050505050505050565b6000610e3a611e65565b610e4261186a565b610e4b836118cd565b600b546000908152600c60205260408120600501805486908110610e7157610e71612d88565b90600052602060002001549050610e87816118cd565b6007546001600160a01b03166323b872dd3330670de0b6b3a7640000610eb089620f4240612c98565b610eba9190612caf565b6040516001600160e01b031960e086901b1681526001600160a01b03938416600482015292909116602483015260448201526064016020604051808303816000875af1158015610f0e573d6000803e3d6000fd5b505050506040513d601f19601f82011682018060405250810190610f329190612cd1565b50600b546000908152600c602052604081206004018054869290610f57908490612d75565b9091555050600b546000908152600d6020908152604080832088845290915281206001018054869290610f8b908490612d75565b9091555050600f805492506001906000610fa58386612d75565b90915550610fb590508383611ebc565b60408051608081018252600b5481526020808201938452818301968752606082019788526000858152600e9091529190912090518155905160018201559251600284015592516003909201919091555090565b600061101261186a565b6000838152600c6020526040812060050180548790811061103557611035612d88565b600091825260208083209190910154868352600d825260408084208a8552909252918190205490516370a0823160e01b81523360048201529192506001600160a01b0316906110d390879083906370a0823190602401602060405180830381865afa1580156110a8573d6000803e3d6000fd5b505050506040513d601f19601f820116820180604052508101906110cc9190612ec4565b1015611d7e565b60405163079cc67960e41b8152336004820152602481018790526001600160a01b038216906379cc679090604401600060405180830381600087803b15801561111b57600080fd5b505af115801561112f573d6000803e3d6000fd5b5050506000868152600c6020526040902060030154905082811061118a5760405162461bcd60e51b81526020600482015260126024820152710444f563a20596f757220706e6c20697320360741b60448201526064016109f6565b670de0b6b3a76400008761119e8386612c85565b6111a89190612c98565b6111b29190612caf565b6007549094506001600160a01b031663a9059cbb866111d664e8d4a5100088612caf565b6040516001600160e01b031960e085901b1681526001600160a01b03909216600483015260248201526044016020604051808303816000875af1158015611221573d6000803e3d6000fd5b505050506040513d601f19601f820116820180604052508101906112459190612cd1565b50505050949350505050565b60009182526006602090815260408084206001600160a01b0393909316845291905290205460ff1690565b60606001805461078590612cee565b610b6d338383611ed6565b60006112a181611bf2565b6112a9611e65565b60005b8251811015610a97578281815181106112c7576112c7612d88565b602090810291909101810151600b546000908152600d835260408082208583529093529190912060040155806112fc81612eab565b9150506112ac565b61130e3383611a0f565b61132a5760405162461bcd60e51b81526004016109f690612d28565b61133684848484611fa4565b50505050565b600061134781611bf2565b61134f611e65565b50600b80546000908152600c6020526040808220805460ff19166001179055915481522060030155565b6009805461138690612cee565b80601f01602080910402602001604051908101604052809291908181526020018280546113b290612cee565b80156113ff5780601f106113d4576101008083540402835291602001916113ff565b820191906000526020600020905b8154815290600101906020018083116113e257829003601f168201915b505050505081565b606061141282611942565b600061142960408051602081019091526000815290565b905060008151116114495760405180602001604052806000815250611474565b8061145384611fd7565b604051602001611464929190612edd565b6040516020818303038152906040525b9392505050565b6114b66040518060a0016040528060006001600160a01b03168152602001600081526020016000815260200160008152602001600081525090565b506000918252600d6020908152604080842092845291815291819020815160a08101835281546001600160a01b031681526001820154938101939093526002810154918301919091526003810154606083015260040154608082015290565b60008281526006602052604090206001015461153081611bf2565b610a978383611c82565b6008805461138690612cee565b6000611551611e65565b61155961186a565b611562836118cd565b61156b8461206a565b600b546000908152600c602052604081206002810154600590910180549192918790811061159b5761159b612d88565b906000526020600020015490506115b1816118cd565b600b546000908152600d60209081526040808320898452909152812060028101546001909101546115e29190612c85565b90506000670de0b6b3a76400006115f98885612c98565b6116039190612caf565b90508082116116545760405162461bcd60e51b815260206004820152601a60248201527f444f563a206e6f7420656e6f75676820636f6c6c61746572616c00000000000060448201526064016109f6565b600b546000908152600d602090815260408083208b8452909152902060040154670de0b6b3a764000090611689908990612c98565b6116939190612caf565b6007549095506001600160a01b03166323b872dd3330670de0b6b3a76400006116bf8a620f4240612c98565b6116c99190612caf565b6040516001600160e01b031960e086901b1681526001600160a01b03938416600482015292909116602483015260448201526064016020604051808303816000875af115801561171d573d6000803e3d6000fd5b505050506040513d601f19601f820116820180604052508101906117419190612cd1565b50600b546000908152600d602090815260408083208b845290915281206003018054879290611771908490612d75565b9091555050600b546000908152600d602090815260408083208b8452909152812060020180548392906117a5908490612d75565b9091555050600b546000908152600d602090815260408083208b8452909152812060010180548792906117d9908490612d75565b9091555050600b546000908152600d602090815260408083208b8452909152908190205490516340c10f1960e01b81526001600160a01b038881166004830152602482018a9052909116906340c10f1990604401600060405180830381600087803b15801561184757600080fd5b505af115801561185b573d6000803e3d6000fd5b50505050505050509392505050565b3332146118cb5760405162461bcd60e51b815260206004820152602960248201527f444f563a205468697320636f6e7472616374206f6e6c7920696e746572616374604482015268207769746820454f4160b81b60648201526084016109f6565b565b60008111610bba5760405162461bcd60e51b815260206004820152601e60248201527f444f563a2076616c7565206d7573742067726561746572207468616e2030000060448201526064016109f6565b60006001600160e01b03198216637965db0b60e01b14806107705750610770826120d1565b6000818152600260205260409020546001600160a01b0316610bba5760405162461bcd60e51b8152602060048201526018602482015277115490cdcc8c4e881a5b9d985b1a59081d1bdad95b88125160421b60448201526064016109f6565b600081815260046020526040902080546001600160a01b0319166001600160a01b03841690811790915581906119d682610bbd565b6001600160a01b03167f8c5be1e5ebec7d5bd14f71427d1e84f3dd0314c0f7b2291e5b200ac8c7c3b92560405160405180910390a45050565b600080611a1b83610bbd565b9050806001600160a01b0316846001600160a01b03161480611a6257506001600160a01b0380821660009081526005602090815260408083209388168352929052205460ff165b80611a865750836001600160a01b0316611a7b8461095b565b6001600160a01b0316145b949350505050565b826001600160a01b0316611aa182610bbd565b6001600160a01b031614611ac75760405162461bcd60e51b81526004016109f690612f0c565b6001600160a01b038216611b295760405162461bcd60e51b8152602060048201526024808201527f4552433732313a207472616e7366657220746f20746865207a65726f206164646044820152637265737360e01b60648201526084016109f6565b826001600160a01b0316611b3c82610bbd565b6001600160a01b031614611b625760405162461bcd60e51b81526004016109f690612f0c565b600081815260046020908152604080832080546001600160a01b03199081169091556001600160a01b0387811680865260038552838620805460001901905590871680865283862080546001019055868652600290945282852080549092168417909155905184937fddf252ad1be2c89b69c2b068fc378daa952ba7f163c4a11628f55a4df523b3ef91a4505050565b610bba8133612121565b611c068282611251565b610b6d5760008281526006602090815260408083206001600160a01b03851684529091529020805460ff19166001179055611c3e3390565b6001600160a01b0316816001600160a01b0316837f2f8788117e7eff1d82e926ec794901d17c78024a50270940304540a733656f0d60405160405180910390a45050565b611c8c8282611251565b15610b6d5760008281526006602090815260408083206001600160a01b0385168085529252808320805460ff1916905551339285917ff6391f5c32d9c69d2a47ea670b442974b53935d1edc7fd64eb21e047a839171b9190a45050565b6000611cf482610bbd565b9050611cff82610bbd565b600083815260046020908152604080832080546001600160a01b03199081169091556001600160a01b0385168085526003845282852080546000190190558785526002909352818420805490911690555192935084927fddf252ad1be2c89b69c2b068fc378daa952ba7f163c4a11628f55a4df523b3ef908390a45050565b80610bba5760405162461bcd60e51b815260206004820152601c60248201527f444f563a20636f6e646974696f6e20646f65736e2774206d617463680000000060448201526064016109f6565b6000763d602d80600a3d3981f3363d3d373d3d3d363d730000008260601b60e81c176000526e5af43d82803e903d91602b57fd5bf38260781b17602052603760096000f090506001600160a01b038116611e605760405162461bcd60e51b8152602060048201526016602482015275115490cc4c4d8dce8818dc99585d194819985a5b195960521b60448201526064016109f6565b919050565b600b546000908152600c602052604090205460ff16156118cb5760405162461bcd60e51b81526020600482015260126024820152711113d58e881c9bdd5b9908195e1c1a5c995960721b60448201526064016109f6565b610b6d82826040518060200160405280600081525061217a565b816001600160a01b0316836001600160a01b031603611f375760405162461bcd60e51b815260206004820152601960248201527f4552433732313a20617070726f766520746f2063616c6c65720000000000000060448201526064016109f6565b6001600160a01b03838116600081815260056020908152604080832094871680845294825291829020805460ff191686151590811790915591519182527f17307eab39ab6107e8899845ad3d59bd9653f200f220920489ca2b5937696c31910160405180910390a3505050565b611faf848484611a8e565b611fbb848484846121ad565b6113365760405162461bcd60e51b81526004016109f690612f51565b60606000611fe4836122ae565b600101905060008167ffffffffffffffff81111561200457612004612919565b6040519080825280601f01601f19166020018201604052801561202e576020820181803683370190505b5090508181016020015b600019016f181899199a1a9b1b9c1cb0b131b232b360811b600a86061a8153600a850494508461203857509392505050565b600b546000908152600d602090815260408083208484529091528120600401549003610bba5760405162461bcd60e51b8152602060048201526016602482015275444f563a20737472696b65206e6f742061637469766560501b60448201526064016109f6565b60006001600160e01b031982166380ac58cd60e01b148061210257506001600160e01b03198216635b5e139f60e01b145b8061077057506301ffc9a760e01b6001600160e01b0319831614610770565b61212b8282611251565b610b6d5761213881612386565b612143836020612398565b604051602001612154929190612fa3565b60408051601f198184030181529082905262461bcd60e51b82526109f6916004016127e5565b6121848383612534565b61219160008484846121ad565b610a975760405162461bcd60e51b81526004016109f690612f51565b60006001600160a01b0384163b156122a357604051630a85bd0160e11b81526001600160a01b0385169063150b7a02906121f1903390899088908890600401613018565b6020604051808303816000875af192505050801561222c575060408051601f3d908101601f1916820190925261222991810190613055565b60015b612289573d80801561225a576040519150601f19603f3d011682016040523d82523d6000602084013e61225f565b606091505b5080516000036122815760405162461bcd60e51b81526004016109f690612f51565b805181602001fd5b6001600160e01b031916630a85bd0160e11b149050611a86565b506001949350505050565b60008072184f03e93ff9f4daa797ed6e38ed64bf6a1f0160401b83106122ed5772184f03e93ff9f4daa797ed6e38ed64bf6a1f0160401b830492506040015b6d04ee2d6d415b85acef81000000008310612319576d04ee2d6d415b85acef8100000000830492506020015b662386f26fc10000831061233757662386f26fc10000830492506010015b6305f5e100831061234f576305f5e100830492506008015b612710831061236357612710830492506004015b60648310612375576064830492506002015b600a83106107705760010192915050565b60606107706001600160a01b03831660145b606060006123a7836002612c98565b6123b2906002612d75565b67ffffffffffffffff8111156123ca576123ca612919565b6040519080825280601f01601f1916602001820160405280156123f4576020820181803683370190505b509050600360fc1b8160008151811061240f5761240f612d88565b60200101906001600160f81b031916908160001a905350600f60fb1b8160018151811061243e5761243e612d88565b60200101906001600160f81b031916908160001a9053506000612462846002612c98565b61246d906001612d75565b90505b60018111156124e5576f181899199a1a9b1b9c1cb0b131b232b360811b85600f16601081106124a1576124a1612d88565b1a60f81b8282815181106124b7576124b7612d88565b60200101906001600160f81b031916908160001a90535060049490941c936124de81613072565b9050612470565b5083156114745760405162461bcd60e51b815260206004820181905260248201527f537472696e67733a20686578206c656e67746820696e73756666696369656e7460448201526064016109f6565b6001600160a01b03821661258a5760405162461bcd60e51b815260206004820181905260248201527f4552433732313a206d696e7420746f20746865207a65726f206164647265737360448201526064016109f6565b6000818152600260205260409020546001600160a01b0316156125ef5760405162461bcd60e51b815260206004820152601c60248201527f4552433732313a20746f6b656e20616c7265616479206d696e7465640000000060448201526064016109f6565b6000818152600260205260409020546001600160a01b0316156126545760405162461bcd60e51b815260206004820152601c60248201527f4552433732313a20746f6b656e20616c7265616479206d696e7465640000000060448201526064016109f6565b6001600160a01b038216600081815260036020908152604080832080546001019055848352600290915280822080546001600160a01b0319168417905551839291907fddf252ad1be2c89b69c2b068fc378daa952ba7f163c4a11628f55a4df523b3ef908290a45050565b8280548282559060005260206000209081019282156126fa579160200282015b828111156126fa5782518255916020019190600101906126df565b5061270692915061270a565b5090565b5b80821115612706576000815560010161270b565b80356001600160a01b0381168114611e6057600080fd5b6000806040838503121561274957600080fd5b823591506127596020840161271f565b90509250929050565b6001600160e01b031981168114610bba57600080fd5b60006020828403121561278a57600080fd5b813561147481612762565b60005b838110156127b0578181015183820152602001612798565b50506000910152565b600081518084526127d1816020860160208601612795565b601f01601f19169290920160200192915050565b60208152600061147460208301846127b9565b60006020828403121561280a57600080fd5b5035919050565b6000602080835260e0830184511515828501528185015160408501526040850151606085015260608501516080850152608085015160a085015260a085015160c080860152818151808452610100870191508483019350600092505b8083101561288d578351825292840192600192909201919084019061286d565b509695505050505050565b600080604083850312156128ab57600080fd5b6128b48361271f565b946020939093013593505050565b6000806000606084860312156128d757600080fd5b6128e08461271f565b92506128ee6020850161271f565b9150604084013590509250925092565b60006020828403121561291057600080fd5b6114748261271f565b634e487b7160e01b600052604160045260246000fd5b604051601f8201601f1916810167ffffffffffffffff8111828210171561295857612958612919565b604052919050565b600082601f83011261297157600080fd5b8135602067ffffffffffffffff82111561298d5761298d612919565b8160051b61299c82820161292f565b92835284810182019282810190878511156129b657600080fd5b83870192505b848310156129d5578235825291830191908301906129bc565b979650505050505050565b600067ffffffffffffffff8311156129fa576129fa612919565b612a0d601f8401601f191660200161292f565b9050828152838383011115612a2157600080fd5b828260208301376000602084830101529392505050565b600080600060608486031215612a4d57600080fd5b833567ffffffffffffffff80821115612a6557600080fd5b612a7187838801612960565b9450602086013593506040860135915080821115612a8e57600080fd5b508401601f81018613612aa057600080fd5b612aaf868235602084016129e0565b9150509250925092565b600080600060608486031215612ace57600080fd5b8335925060208401359150612ae56040850161271f565b90509250925092565b60008060008060808587031215612b0457600080fd5b843593506020850135925060408501359150612b226060860161271f565b905092959194509250565b8015158114610bba57600080fd5b60008060408385031215612b4e57600080fd5b612b578361271f565b91506020830135612b6781612b2d565b809150509250929050565b600060208284031215612b8457600080fd5b813567ffffffffffffffff811115612b9b57600080fd5b611a8684828501612960565b60008060008060808587031215612bbd57600080fd5b612bc68561271f565b9350612bd46020860161271f565b925060408501359150606085013567ffffffffffffffff811115612bf757600080fd5b8501601f81018713612c0857600080fd5b612c17878235602084016129e0565b91505092959194509250565b60008060408385031215612c3657600080fd5b50508035926020909101359150565b60008060408385031215612c5857600080fd5b612c618361271f565b91506127596020840161271f565b634e487b7160e01b600052601160045260246000fd5b8181038181111561077057610770612c6f565b808202811582820484141761077057610770612c6f565b600082612ccc57634e487b7160e01b600052601260045260246000fd5b500490565b600060208284031215612ce357600080fd5b815161147481612b2d565b600181811c90821680612d0257607f821691505b602082108103612d2257634e487b7160e01b600052602260045260246000fd5b50919050565b6020808252602d908201527f4552433732313a2063616c6c6572206973206e6f7420746f6b656e206f776e6560408201526c1c881bdc88185c1c1c9bdd9959609a1b606082015260800190565b8082018082111561077057610770612c6f565b634e487b7160e01b600052603260045260246000fd5b8054600090600181811c9080831680612db857607f831692505b60208084108203612dd957634e487b7160e01b600052602260045260246000fd5b83885260208801828015612df45760018114612e0a57612e35565b60ff198716825285151560051b82019750612e35565b60008981526020902060005b87811015612e2f57815484820152908601908401612e16565b83019850505b5050505050505092915050565b60018060a01b0388168152861515602082015285604082015284606082015260e060808201526000612e7760e0830186612d9e565b82810360a0840152612e898186612d9e565b905082810360c0840152612e9d81856127b9565b9a9950505050505050505050565b600060018201612ebd57612ebd612c6f565b5060010190565b600060208284031215612ed657600080fd5b5051919050565b60008351612eef818460208801612795565b835190830190612f03818360208801612795565b01949350505050565b60208082526025908201527f4552433732313a207472616e736665722066726f6d20696e636f72726563742060408201526437bbb732b960d91b606082015260800190565b60208082526032908201527f4552433732313a207472616e7366657220746f206e6f6e20455243373231526560408201527131b2b4bb32b91034b6b83632b6b2b73a32b960711b606082015260800190565b7f416363657373436f6e74726f6c3a206163636f756e7420000000000000000000815260008351612fdb816017850160208801612795565b7001034b99036b4b9b9b4b733903937b6329607d1b601791840191820152835161300c816028840160208801612795565b01602801949350505050565b6001600160a01b038581168252841660208201526040810183905260806060820181905260009061304b908301846127b9565b9695505050505050565b60006020828403121561306757600080fd5b815161147481612762565b60008161308157613081612c6f565b50600019019056fea264697066735822122045c7ec77f863af9bf9c1a5c7d0115c44322896ef52da10b156f23eeeeec690cd64736f6c6343000813003360806040523480156200001157600080fd5b5060408051602080820183526000808352835191820190935291825290818160056200003e8382620002b8565b5060066200004d8282620002b8565b50506007805460ff191690555062000067600033620000c7565b620000937f9f2df0fed2c77648de5860a4cc508cd0818c85b8b8a1ab4ceeef8d981c8956a633620000c7565b620000bf7f65d7a28e3265b37a6474929f336521b332c1681b933f6cb9f3376673440d862a33620000c7565b505062000384565b620000d38282620000d7565b5050565b620000e3828262000102565b6000828152600160205260409020620000fd9082620001a2565b505050565b6000828152602081815260408083206001600160a01b038516845290915290205460ff16620000d3576000828152602081815260408083206001600160a01b03851684529091529020805460ff191660011790556200015e3390565b6001600160a01b0316816001600160a01b0316837f2f8788117e7eff1d82e926ec794901d17c78024a50270940304540a733656f0d60405160405180910390a45050565b6000620001b9836001600160a01b038416620001c2565b90505b92915050565b60008181526001830160205260408120546200020b57508154600181810184556000848152602080822090930184905584548482528286019093526040902091909155620001bc565b506000620001bc565b634e487b7160e01b600052604160045260246000fd5b600181811c908216806200023f57607f821691505b6020821081036200026057634e487b7160e01b600052602260045260246000fd5b50919050565b601f821115620000fd57600081815260208120601f850160051c810160208610156200028f5750805b601f850160051c820191505b81811015620002b0578281556001016200029b565b505050505050565b81516001600160401b03811115620002d457620002d462000214565b620002ec81620002e584546200022a565b8462000266565b602080601f8311600181146200032457600084156200030b5750858301515b600019600386901b1c1916600185901b178555620002b0565b600085815260208120601f198616915b82811015620003555788860151825594840194600190910190840162000334565b5085821015620003745787850151600019600388901b60f8161c191681555b5050505050600190811b01905550565b611fdd80620003946000396000f3fe608060405234801561001057600080fd5b50600436106102115760003560e01c806379cc679011610125578063bf911794116100ad578063d90a730e1161007c578063d90a730e1461046d578063dd62ed3e14610475578063e184c9be14610488578063e63ab1e914610491578063f3c274a6146104a657600080fd5b8063bf91179414610418578063ca15c87314610420578063d539139314610433578063d547741f1461045a57600080fd5b806395d89b41116100f457806395d89b41146103d9578063a217fddf146103e1578063a457c2d7146103e9578063a9059cbb146103fc578063ad8f50081461040f57600080fd5b806379cc6790146103985780638456cb59146103ab5780639010d07c146103b357806391d14854146103c657600080fd5b8063313ce567116101a857806340c10f191161017757806340c10f191461032b57806342966c681461033e5780635c975abb146103515780635edabd8b1461035c57806370a082311461036f57600080fd5b8063313ce567146102ee57806336568abe146102fd57806339509351146103105780633f4ba83a1461032357600080fd5b806318160ddd116101e457806318160ddd1461029157806323b872dd146102a3578063248a9ca3146102b65780632f2ff15d146102d957600080fd5b806301ffc9a71461021657806306fdde031461023e578063095ea7b3146102535780630af0ebf714610266575b600080fd5b6102296102243660046119cd565b6104b8565b60405190151581526020015b60405180910390f35b6102466104e3565b6040516102359190611a1b565b610229610261366004611a6a565b610575565b600a54610279906001600160a01b031681565b6040516001600160a01b039091168152602001610235565b6004545b604051908152602001610235565b6102296102b1366004611a94565b61058d565b6102956102c4366004611ad0565b60009081526020819052604090206001015490565b6102ec6102e7366004611ae9565b6105b1565b005b60405160128152602001610235565b6102ec61030b366004611ae9565b6105db565b61022961031e366004611a6a565b61065e565b6102ec610680565b6102ec610339366004611a6a565b610714565b6102ec61034c366004611ad0565b6107b3565b60075460ff16610229565b6102ec61036a366004611bb8565b6107c0565b61029561037d366004611c7c565b6001600160a01b031660009081526002602052604090205490565b6102ec6103a6366004611a6a565b610994565b6102ec6109a9565b6102796103c1366004611c97565b610a3b565b6102296103d4366004611ae9565b610a5a565b610246610a83565b610295600081565b6102296103f7366004611a6a565b610a92565b61022961040a366004611a6a565b610b0d565b61029560085481565b610246610b1b565b61029561042e366004611ad0565b610ba9565b6102957f9f2df0fed2c77648de5860a4cc508cd0818c85b8b8a1ab4ceeef8d981c8956a681565b6102ec610468366004611ae9565b610bc0565b610246610be5565b610295610483366004611cb9565b610bf2565b61029560095481565b610295600080516020611f8883398151915281565b60075461022990610100900460ff1681565b60006001600160e01b03198216635a05180f60e01b14806104dd57506104dd82610c1d565b92915050565b6060600580546104f290611ce3565b80601f016020809104026020016040519081016040528092919081815260200182805461051e90611ce3565b801561056b5780601f106105405761010080835404028352916020019161056b565b820191906000526020600020905b81548152906001019060200180831161054e57829003601f168201915b5050505050905090565b600033610583818585610c52565b5060019392505050565b60003361059b858285610d76565b6105a6858585610df0565b506001949350505050565b6000828152602081905260409020600101546105cc81610fa6565b6105d68383610fb0565b505050565b6001600160a01b03811633146106505760405162461bcd60e51b815260206004820152602f60248201527f416363657373436f6e74726f6c3a2063616e206f6e6c792072656e6f756e636560448201526e103937b632b9903337b91039b2b63360891b60648201526084015b60405180910390fd5b61065a8282610fd2565b5050565b6000336105838185856106718383610bf2565b61067b9190611d33565b610c52565b610698600080516020611f8883398151915233610a5a565b61070a5760405162461bcd60e51b815260206004820152603960248201527f45524332305072657365744d696e7465725061757365723a206d75737420686160448201527f76652070617573657220726f6c6520746f20756e7061757365000000000000006064820152608401610647565b610712610ff4565b565b61073e7f9f2df0fed2c77648de5860a4cc508cd0818c85b8b8a1ab4ceeef8d981c8956a633610a5a565b6107a95760405162461bcd60e51b815260206004820152603660248201527f45524332305072657365744d696e7465725061757365723a206d7573742068616044820152751d99481b5a5b9d195c881c9bdb19481d1bc81b5a5b9d60521b6064820152608401610647565b61065a8282611046565b6107bd3382611113565b50565b83421061080f5760405162461bcd60e51b815260206004820181905260248201527f43616e2774206465706c6f7920616e206578706972656420636f6e74726163746044820152606401610647565b600a80546001600160a01b0319166001600160a01b038916179055600b6108368482611d94565b50600c6108438382611d94565b506007805461ff00191661010088151502179055600885905560098490556040805180820190915260018152602d60f81b6020820152600090610887908590611253565b90506108938183611253565b90506108b881604051806040016040528060018152602001602d60f81b815250611253565b90506108e1816108dc670de0b6b3a76400006008546108d79190611e54565b61127f565b611253565b905061093b81600760019054906101000a900460ff1661091b57604051806040016040528060028152602001612d4360f01b815250611253565b6040518060400160405280600281526020016102d560f41b815250611253565b9050610948600033611312565b6109727f9f2df0fed2c77648de5860a4cc508cd0818c85b8b8a1ab4ceeef8d981c8956a633611312565b61098a600080516020611f8883398151915233611312565b5050505050505050565b61099f823383610d76565b61065a8282611113565b6109c1600080516020611f8883398151915233610a5a565b610a335760405162461bcd60e51b815260206004820152603760248201527f45524332305072657365744d696e7465725061757365723a206d75737420686160448201527f76652070617573657220726f6c6520746f2070617573650000000000000000006064820152608401610647565b61071261131c565b6000828152600160205260408120610a539083611359565b9392505050565b6000918252602082815260408084206001600160a01b0393909316845291905290205460ff1690565b6060600680546104f290611ce3565b60003381610aa08286610bf2565b905083811015610b005760405162461bcd60e51b815260206004820152602560248201527f45524332303a2064656372656173656420616c6c6f77616e63652062656c6f77604482015264207a65726f60d81b6064820152608401610647565b6105a68286868403610c52565b600033610583818585610df0565b600c8054610b2890611ce3565b80601f0160208091040260200160405190810160405280929190818152602001828054610b5490611ce3565b8015610ba15780601f10610b7657610100808354040283529160200191610ba1565b820191906000526020600020905b815481529060010190602001808311610b8457829003601f168201915b505050505081565b60008181526001602052604081206104dd90611365565b600082815260208190526040902060010154610bdb81610fa6565b6105d68383610fd2565b600b8054610b2890611ce3565b6001600160a01b03918216600090815260036020908152604080832093909416825291909152205490565b60006001600160e01b03198216637965db0b60e01b14806104dd57506301ffc9a760e01b6001600160e01b03198316146104dd565b6001600160a01b038316610cb45760405162461bcd60e51b8152602060048201526024808201527f45524332303a20617070726f76652066726f6d20746865207a65726f206164646044820152637265737360e01b6064820152608401610647565b6001600160a01b038216610d155760405162461bcd60e51b815260206004820152602260248201527f45524332303a20617070726f766520746f20746865207a65726f206164647265604482015261737360f01b6064820152608401610647565b6001600160a01b0383811660008181526003602090815260408083209487168084529482529182902085905590518481527f8c5be1e5ebec7d5bd14f71427d1e84f3dd0314c0f7b2291e5b200ac8c7c3b925910160405180910390a3505050565b6000610d828484610bf2565b90506000198114610dea5781811015610ddd5760405162461bcd60e51b815260206004820152601d60248201527f45524332303a20696e73756666696369656e7420616c6c6f77616e63650000006044820152606401610647565b610dea8484848403610c52565b50505050565b6001600160a01b038316610e545760405162461bcd60e51b815260206004820152602560248201527f45524332303a207472616e736665722066726f6d20746865207a65726f206164604482015264647265737360d81b6064820152608401610647565b6001600160a01b038216610eb65760405162461bcd60e51b815260206004820152602360248201527f45524332303a207472616e7366657220746f20746865207a65726f206164647260448201526265737360e81b6064820152608401610647565b610ec183838361136f565b6001600160a01b03831660009081526002602052604090205481811015610f395760405162461bcd60e51b815260206004820152602660248201527f45524332303a207472616e7366657220616d6f756e7420657863656564732062604482015265616c616e636560d01b6064820152608401610647565b6001600160a01b0380851660008181526002602052604080822086860390559286168082529083902080548601905591517fddf252ad1be2c89b69c2b068fc378daa952ba7f163c4a11628f55a4df523b3ef90610f999086815260200190565b60405180910390a3610dea565b6107bd813361137a565b610fba82826113d3565b60008281526001602052604090206105d69082611457565b610fdc828261146c565b60008281526001602052604090206105d690826114d1565b610ffc6114e6565b6007805460ff191690557f5db9ee0a495bf2e6ff9c91a7834c1ba4fdd244a5e8aa4e537bd38aeae4b073aa335b6040516001600160a01b03909116815260200160405180910390a1565b6001600160a01b03821661109c5760405162461bcd60e51b815260206004820152601f60248201527f45524332303a206d696e7420746f20746865207a65726f2061646472657373006044820152606401610647565b6110a86000838361136f565b80600460008282546110ba9190611d33565b90915550506001600160a01b0382166000818152600260209081526040808320805486019055518481527fddf252ad1be2c89b69c2b068fc378daa952ba7f163c4a11628f55a4df523b3ef910160405180910390a35050565b6001600160a01b0382166111735760405162461bcd60e51b815260206004820152602160248201527f45524332303a206275726e2066726f6d20746865207a65726f206164647265736044820152607360f81b6064820152608401610647565b61117f8260008361136f565b6001600160a01b038216600090815260026020526040902054818110156111f35760405162461bcd60e51b815260206004820152602260248201527f45524332303a206275726e20616d6f756e7420657863656564732062616c616e604482015261636560f01b6064820152608401610647565b6001600160a01b03831660008181526002602090815260408083208686039055600480548790039055518581529192917fddf252ad1be2c89b69c2b068fc378daa952ba7f163c4a11628f55a4df523b3ef910160405180910390a3505050565b60608282604051602001611268929190611e76565b604051602081830303815290604052905092915050565b6060600061128c8361152f565b600101905060008167ffffffffffffffff8111156112ac576112ac611b15565b6040519080825280601f01601f1916602001820160405280156112d6576020820181803683370190505b5090508181016020015b600019016f181899199a1a9b1b9c1cb0b131b232b360811b600a86061a8153600a85049450846112e057509392505050565b61065a8282610fb0565b611324611607565b6007805460ff191660011790557f62e78cea01bee320cd4e420270b5ea74000d11b0c9f74754ebdbfc544b05a2586110293390565b6000610a53838361164d565b60006104dd825490565b6105d6838383611677565b6113848282610a5a565b61065a57611391816116dd565b61139c8360206116ef565b6040516020016113ad929190611ea5565b60408051601f198184030181529082905262461bcd60e51b825261064791600401611a1b565b6113dd8282610a5a565b61065a576000828152602081815260408083206001600160a01b03851684529091529020805460ff191660011790556114133390565b6001600160a01b0316816001600160a01b0316837f2f8788117e7eff1d82e926ec794901d17c78024a50270940304540a733656f0d60405160405180910390a45050565b6000610a53836001600160a01b03841661188b565b6114768282610a5a565b1561065a576000828152602081815260408083206001600160a01b0385168085529252808320805460ff1916905551339285917ff6391f5c32d9c69d2a47ea670b442974b53935d1edc7fd64eb21e047a839171b9190a45050565b6000610a53836001600160a01b0384166118da565b60075460ff166107125760405162461bcd60e51b815260206004820152601460248201527314185d5cd8589b194e881b9bdd081c185d5cd95960621b6044820152606401610647565b60008072184f03e93ff9f4daa797ed6e38ed64bf6a1f0160401b831061156e5772184f03e93ff9f4daa797ed6e38ed64bf6a1f0160401b830492506040015b6d04ee2d6d415b85acef8100000000831061159a576d04ee2d6d415b85acef8100000000830492506020015b662386f26fc1000083106115b857662386f26fc10000830492506010015b6305f5e10083106115d0576305f5e100830492506008015b61271083106115e457612710830492506004015b606483106115f6576064830492506002015b600a83106104dd5760010192915050565b60075460ff16156107125760405162461bcd60e51b815260206004820152601060248201526f14185d5cd8589b194e881c185d5cd95960821b6044820152606401610647565b600082600001828154811061166457611664611f1a565b9060005260206000200154905092915050565b60075460ff16156105d65760405162461bcd60e51b815260206004820152602a60248201527f45524332305061757361626c653a20746f6b656e207472616e736665722077686044820152691a5b19481c185d5cd95960b21b6064820152608401610647565b60606104dd6001600160a01b03831660145b606060006116fe836002611f30565b611709906002611d33565b67ffffffffffffffff81111561172157611721611b15565b6040519080825280601f01601f19166020018201604052801561174b576020820181803683370190505b509050600360fc1b8160008151811061176657611766611f1a565b60200101906001600160f81b031916908160001a905350600f60fb1b8160018151811061179557611795611f1a565b60200101906001600160f81b031916908160001a90535060006117b9846002611f30565b6117c4906001611d33565b90505b600181111561183c576f181899199a1a9b1b9c1cb0b131b232b360811b85600f16601081106117f8576117f8611f1a565b1a60f81b82828151811061180e5761180e611f1a565b60200101906001600160f81b031916908160001a90535060049490941c9361183581611f47565b90506117c7565b508315610a535760405162461bcd60e51b815260206004820181905260248201527f537472696e67733a20686578206c656e67746820696e73756666696369656e746044820152606401610647565b60008181526001830160205260408120546118d2575081546001818101845560008481526020808220909301849055845484825282860190935260409020919091556104dd565b5060006104dd565b600081815260018301602052604081205480156119c35760006118fe600183611f5e565b855490915060009061191290600190611f5e565b905081811461197757600086600001828154811061193257611932611f1a565b906000526020600020015490508087600001848154811061195557611955611f1a565b6000918252602080832090910192909255918252600188019052604090208390555b855486908061198857611988611f71565b6001900381819060005260206000200160009055905585600101600086815260200190815260200160002060009055600193505050506104dd565b60009150506104dd565b6000602082840312156119df57600080fd5b81356001600160e01b031981168114610a5357600080fd5b60005b83811015611a125781810151838201526020016119fa565b50506000910152565b6020815260008251806020840152611a3a8160408501602087016119f7565b601f01601f19169190910160400192915050565b80356001600160a01b0381168114611a6557600080fd5b919050565b60008060408385031215611a7d57600080fd5b611a8683611a4e565b946020939093013593505050565b600080600060608486031215611aa957600080fd5b611ab284611a4e565b9250611ac060208501611a4e565b9150604084013590509250925092565b600060208284031215611ae257600080fd5b5035919050565b60008060408385031215611afc57600080fd5b82359150611b0c60208401611a4e565b90509250929050565b634e487b7160e01b600052604160045260246000fd5b600082601f830112611b3c57600080fd5b813567ffffffffffffffff80821115611b5757611b57611b15565b604051601f8301601f19908116603f01168101908282118183101715611b7f57611b7f611b15565b81604052838152866020858801011115611b9857600080fd5b836020870160208301376000602085830101528094505050505092915050565b600080600080600080600060e0888a031215611bd357600080fd5b611bdc88611a4e565b965060208801358015158114611bf157600080fd5b95506040880135945060608801359350608088013567ffffffffffffffff80821115611c1c57600080fd5b611c288b838c01611b2b565b945060a08a0135915080821115611c3e57600080fd5b611c4a8b838c01611b2b565b935060c08a0135915080821115611c6057600080fd5b50611c6d8a828b01611b2b565b91505092959891949750929550565b600060208284031215611c8e57600080fd5b610a5382611a4e565b60008060408385031215611caa57600080fd5b50508035926020909101359150565b60008060408385031215611ccc57600080fd5b611cd583611a4e565b9150611b0c60208401611a4e565b600181811c90821680611cf757607f821691505b602082108103611d1757634e487b7160e01b600052602260045260246000fd5b50919050565b634e487b7160e01b600052601160045260246000fd5b808201808211156104dd576104dd611d1d565b601f8211156105d657600081815260208120601f850160051c81016020861015611d6d5750805b601f850160051c820191505b81811015611d8c57828155600101611d79565b505050505050565b815167ffffffffffffffff811115611dae57611dae611b15565b611dc281611dbc8454611ce3565b84611d46565b602080601f831160018114611df75760008415611ddf5750858301515b600019600386901b1c1916600185901b178555611d8c565b600085815260208120601f198616915b82811015611e2657888601518255948401946001909101908401611e07565b5085821015611e445787850151600019600388901b60f8161c191681555b5050505050600190811b01905550565b600082611e7157634e487b7160e01b600052601260045260246000fd5b500490565b60008351611e888184602088016119f7565b835190830190611e9c8183602088016119f7565b01949350505050565b7f416363657373436f6e74726f6c3a206163636f756e7420000000000000000000815260008351611edd8160178501602088016119f7565b7001034b99036b4b9b9b4b733903937b6329607d1b6017918401918201528351611f0e8160288401602088016119f7565b01602801949350505050565b634e487b7160e01b600052603260045260246000fd5b80820281158282048414176104dd576104dd611d1d565b600081611f5657611f56611d1d565b506000190190565b818103818111156104dd576104dd611d1d565b634e487b7160e01b600052603160045260246000fdfe65d7a28e3265b37a6474929f336521b332c1681b933f6cb9f3376673440d862aa26469706673582212207bf66db47d8304edc9b1c21710de9b9134c046e5ce4b3cd35d2ff671073fd68f64736f6c63430008130033",
    "linkReferences": {}
  },
  "methodIdentifiers": {
    "DEFAULT_ADMIN_ROLE()": "a217fddf",
    "approve(address,uint256)": "095ea7b3",
    "balanceOf(address)": "70a08231",
    "bootstrap(uint256[],uint256,string)": "751eb65c",
    "burn(uint256)": "42966c68",
    "collateralSymbol()": "bf911794",
    "collateralToken()": "b2016bd4",
    "currentRound()": "8a19c8bc",
    "deposit(uint256,uint256,address)": "8dbdbe6d",
    "expire(uint256)": "bf81bf43",
    "getApproved(uint256)": "081812fc",
    "getRoleAdmin(bytes32)": "248a9ca3",
    "getRoundData(uint256)": "0720da52",
    "getRoundStrikeData(uint256,uint256)": "ce7fa75d",
    "getWritePosition(uint256)": "07ccd2a6",
    "grantRole(bytes32,address)": "2f2ff15d",
    "hasRole(bytes32,address)": "91d14854",
    "isApprovedForAll(address,address)": "e985e9c5",
    "name()": "06fdde03",
    "ownerOf(uint256)": "6352211e",
    "purchase(uint256,uint256,address)": "ea3bd5df",
    "receiptImplementation()": "f3639138",
    "renounceRole(bytes32,address)": "36568abe",
    "revokeRole(bytes32,address)": "d547741f",
    "safeTransferFrom(address,address,uint256)": "42842e0e",
    "safeTransferFrom(address,address,uint256,bytes)": "b88d4fde",
    "setApprovalForAll(address,bool)": "a22cb465",
    "settle(uint256,uint256,uint256,address)": "91aee9a8",
    "supportsInterface(bytes4)": "01ffc9a7",
    "symbol()": "95d89b41",
    "tokenURI(uint256)": "c87b56dd",
    "transferFrom(address,address,uint256)": "23b872dd",
    "underlyingSymbol()": "d90a730e",
    "updateOptionPrice(uint256[])": "a356368e",
    "withdraw(uint256,address)": "00f714ce"
  },
  "id": 47
}